:07000000020E52117B0DA35B
:10000B000207E990011BEBF0A3EAF0A3E9F09001E2
:10001B001EE0FBA3E0FAA3E0F91203ABFD6018901E
:10002B0001257401F090011B12095690011FE47514
:10003B00F00112045B80D722021050E50E241EF54E
:10004B0082E43401F583E0050E2290011B30070397
:10005B0090011EE475F00112068C0203AB2000E93F
:10006B007F2ED2008018EF540F2490D43440D4FF4D
:10007B0030040BEF24BFB41A0050032461FFE50FCB
:10008B006002150F0512E5127002051130070E9074
:10009B00011BE475F00112068CEF0203F10211084B
:1000AB007403D2078003E4C207F50E90011B1206FE
:1000BB00A3E4F50FF511F512E50F60077F20120091
:1000CB008980F57510FFC201C200C202C203C205CE
:1000DB00C206C208120055FF700D3007057F0012D3
:1000EB00009AAF12AE1122B4255FC2D5C204120022
:1000FB0055FF24D0B40A00501A75F00A780F30D58A
:10010B000508B6FF0106C6A426F620D5047002D258
:10011B000380D924CFB41A00EF5004C2E5D20402F5
:10012B00029BD20180C6D20080C0D20280BCD2D545
:10013B0080BAD20580B47F20120089200207740197
:10014B00B50F0040F1120046FF1200890200C3D226
:10015B0008D2068095120046FB120046FA120046A2
:10016B00F94A4B7006796C7A037BFF20022EE50F60
:10017B00602A7E008E827583001203C460060EEE29
:10018B00651070F0C2D5EBC0E0EAC0E0E9C0E0EE6C
:10019B001202E2D0E0F9D0E0FAD0E0FB1203ABFFA1
:1001AB0060AAEBC0E0EAC0E0E9C0E0120089D0E051
:1001BB002401F9D0E03400FAD0E0FBE5100460DC58
:1001CB00D510D980877BFF7A0279DED202809C79A9
:1001DB001080027908C206C2088008D2D5790A803D
:1001EB0004790AC2D5E510047002F510E4FAFDFE9D
:1001FB00FF120046FC7B08200113120046FD7B100A
:10020B0030000A120046FE120046FF7B20EC3382C0
:10021B00D592D55013C3E43000069FFFE49EFEE455
:10022B002001039DFDE49CFCE4CBF8C201EC700CB7
:10023B00CFCECDCCE824F8F870F38017C3EF33FFA3
:10024B00EE33FEED33FDEC33FCEB33FB994002FB5D
:10025B000FD8E9EB300105F8D0E0C448B201C0E09B
:10026B000AEC4D4E4F78207B0070C2EAB51000406F
:10027B00BCC0E01202E4D0F0D0E0200104C4C0E026
:10028B00C4B201C0F0120072D0F0D5F0EB0200C383
:10029B001206AC01605301DA5801314C012D4201B9
:1002AB00DE4F01E64401E64901464301EC5501D01E
:1002BB004601D04501D047038C5001352D01392E15
:1002CB00015C2B013D23015A2003752A00F54800E0
:1002DB000001543F3F3F00790AA2D520031430059B
:1002EB0009B910020404B9080104A2D52006025072
:1002FB0001042002689202B50F005034C0E07F2049
:10030B003003197F30A20272067205500F12033BA5
:10031B00C202C206C205C2087F30800F300503E956
:10032B00C0E0120089300503D0E0F9D0E0B50FCC66
:10033B003005177F30B9100C1200897F5830040735
:10034B007F788003B908031200893002057F2D02E4
:10035B0000897F202008F87F2B2006F32292028051
:10036B00CF286E756C6C2900D2011200463001F853
:10037B00C201780F30D50108F60200F52D50434924
:10038B00581200462403B405004001E49003879300
:10039B0012007A743A12007AD203750F040201DA52
:1003AB00BB010689828A83E0225002E722BBFE0250
:1003BB00E32289828A83E49322BB010CE58229F52F
:1003CB0082E5833AF583E0225006E92582F8E6229E
:1003DB00BBFE06E92582F8E222E58229F582E58358
:1003EB003AF583E49322BB010689828A83F022507B
:1003FB0002F722BBFE01F322F8BB010DE58229F5C2
:10040B0082E5833AF583E8F0225006E92582C8F6A7
:10041B0022BBFE05E92582C8F222C2D5EC30E709E2
:10042B00B2D5E4C39DFDE49CFCEE30E715B2D5E4F8
:10043B00C39FFFE49EFE120569C3E49DFDE49CFC93
:10044B00800312056930D507C3E49FFFE49EFE22AB
:10045B00C5F0F8A3E028F0C5F0F8E582158270022C
:10046B001583E038F022A3F8E0C5F025F0F0E58223
:10047B00158270021583E0C838F0E822BB0110E545
:10048B008229F582E5833AF583E0F5F0A3E022506B
:10049B0009E92582F886F008E622BBFE0AE92582E7
:1004AB00F8E2F5F008E222E5832AF583E993F5F00B
:1004BB00A3E99322BB010DC58229C582C5833AC529
:1004CB008302045B5011C58229F808E5F026F61863
:1004DB00F5F0E58236F622BBFE11C58229F808E25B
:1004EB0025F0F5F0F218E23582F222F8E58229F5D3
:1004FB0082E5832AF58374019325F0F5F0E49338B4
:10050B0022F8BB0111E58229F582E5833AF583E8F0
:10051B00F0E5F0A3F0225009E92582C8F608A6F011
:10052B0022BBFE09E92582C8F2E5F008F222C3E4FA
:10053B009FFFE49EFEE49DFDE49CFC22EB9FF5F007
:10054B00EA9E42F0E99D42F0EC6480C864809845D5
:10055B00F022ECF0A3EDF0A3EEF0A3EFF022BC0041
:10056B000BBE0029EF8DF084FFADF022E4CCF875C3
:10057B00F008EF2FFFEE33FEEC33FCEE9DEC9840D2
:10058B0005FCEE9DFE0FD5F0E9E4CEFD22EDF8F56E
:10059B00F0EE8420D21CFEADF075F008EF2FFFEDCE
:1005AB0033FD4007985006D5F0F222C398FD0FD5C6
:1005BB00F0EA2275F008758200EF2FFFEE33FECDC7
:1005CB0033CDCC33CCC58233C5829BED9AEC99E508
:1005DB008298400CF582EE9BFEED9AFDEC99FC0F98
:1005EB00D5F0D6E4CEFBE4CDFAE4CCF9A88222B860
:1005FB0000C1B90059BA002DEC8BF084CFCECDFCE5
:10060B00E5F0CBF97818EF2FFFEE33FEED33FDEC71
:10061B0033FCEB33FB10D703994004EB99FB0FD85A
:10062B00E5E4F9FA227818EF2FFFEE33FEED33FDF8
:10063B00EC33FCC933C910D7059BE99A4007EC9BF7
:10064B00FCE99AF90FD8E0E4C9FAE4CCFB2275F087
:10065B0010EF2FFFEE33FEED33FDCC33CCC833C898
:10066B0010D7079BEC9AE899400AED9BFDEC9AFC9E
:10067B00E899F80FD5F0DAE4CDFBE4CCFAE4C8F94D
:10068B0022F8E0FBA3A3E0F925F0F0E582158270D8
:10069B00021583E0FA38F022EBF0A3EAF0A3E9F0BD
:1006AB0022D083D082F8E4937012740193700DA35F
:1006BB00A393F8740193F5828883E47374029368AF
:1006CB0060EFA3A3A380DFEFD3940140037FFF224E
:1006DB0074142F2FF8E620E5F4C2AFE64430F6D2BF
:1006EB00AFAE0CEEC39F50210E74172EF8E6F9082F
:1006FB00E618BE010274FFFDED69600909E71919DF
:10070B00F7090980F3161680DAEED39F40040581B2
:10071B000581EED39F402274172EF808E6F9EEB54B
:10072B000C02A981180606E6FDED6960091919E7A7
:10073B000909F71980F31E80D9EF2417F8E604F89E
:10074B00EF2F0490000393F608EF2F93F67F002210
:10075B00EFD3940140037FFF22EF232414F8E630FC
:10076B00E5F4C2AFE6548CF6D2AFE50CB5070A74CC
:10077B00172FF8E6F58102085F502E74182FF8E654
:10078B00BF010274FFFD18E6F974172FF8FBE6FCA6
:10079B00E96C6008A805E7F61D1980F4A803A60507
:1007AB001FE50CB507E37F002274182FF8E6FD1840
:1007BB0086010F74172FF8A601088604E50CB50700
:1007CB0002AC81ED6C60080D09A805E6F780F4E535
:1007DB000CB507DE89817F0022C2AF80FE32120783
:1007EB00E885D00B75D008AAE0C28CE58A24F7F512
:1007FB008AE58C34D8F58CD28CEC2418F8E6BC0145
:10080B000274FFC39581B4140040CE79027813169D
:10081B00E608700BC2AFE630E1034418F6D2AF081E
:10082B00D9EDEA8BD0300A0122D50DFCC0E0C0D047
:10083B00C0F0C083C082C000C001C002C003C004AE
:10084B00C005C006C007E50C232414F87440C2AFE2
:10085B0046F6D2AFD20AE50CFF232414F80F080892
:10086B00BF02047F007814E630E4F200E50CC39F6E
:10087B005020050C7417250CF8E6FDA68108E6AE92
:10088B000CBE010274FFCDF8E86D60E008E6C0E035
:10089B0080F6E50CD39F4027E50C2418F8E6AE0C48
:1008AB00BE010274FFFD18E6CDF8E5816D6006D040
:1008BB00E0F61880F5E50C2417C8F6150C80D375F7
:1008CB000D05E50C232414F87F04C2AFE610E61ED9
:1008DB0030E00310E20C7F0030E10730E3047F08C7
:1008EB0054F4547CC6D2AF54804207C20A22F6D2CB
:1008FB00AFD007D006D005D004D003D002D001D0A2
:10090B0000D082D083D0F0D0D0D0E0C20A227817AA
:10091B00A68174016006FF0876FFDFFB7F02E47897
:10092B0013F608F608DFFA7814763090000374019A
:10093B0093C0E0E493C0E0750D05438901758AF01F
:10094B00758CD8D28CD2AFD2A92201E0FBA3E0FAEE
:10095B00A3E0F9900124EDF0900121EBF0A3EAF074
:10096B00A3E9F01203ABFF900125E0FD12100F90ED
:10097B000121E0FBA3E0FAA3E0F99000021203C40B
:10098B00FF900124E0FEC45401FD12100F900121D1
:10099B00E0FBA3E0FAA3E0F99000031203C4FF907D
:1009AB000124E0C4540FFEC3135401FD12100F9029
:1009BB000121E0FBA3E0FAA3E0F99000041203C4C9
:1009CB00FF900124E0C4540FFE13135401FD1210C9
:1009DB000F900121E0FBA3E0FAA3E0F990000512D0
:1009EB0003C4FF900124E0C4540FFE1313135401EE
:1009FB00FD12100F900121E0FBA3E0FAA3E0F91226
:100A0B000F37900121E0FBA3E0FAA3E0F99000027D
:100A1B001203C4FF900124E05401FD12100F90014A
:100A2B0021E0FBA3E0FAA3E0F99000031203C4FF5B
:100A3B00900124E0FEC3135401FD12100F9001210D
:100A4B00E0FBA3E0FAA3E0F99000041203C4FF90CB
:100A5B000124E0FE13135401FD12100F900121E04D
:100A6B00FBA3E0FAA3E0F99000051203C4FF900189
:100A7B0024E0FE1313135401FD12100F900121E01B
:100A8B00FBA3E0FAA3E0F9020F376020014300005B
:100A9B00000000000000000000000000000000004B
:100AAB0000000000000000000000000000004200F9
:100ABB000000006100000A000000000000000000C0
:100ACB00000000000000000000000000000000001B
:100ADB00000000000000000000000000000000000B
:100AEB0000000000000000000000000000000000FB
:100AFB0000000000000000000000000000000000EB
:100B0B0000000000000000000000000000000000DA
:100B1B0000000000000000000000000000000000CA
:100B2B0000000000000000000000000000000000BA
:100B3B0000000000000000000000000000000000AA
:100B4B00000000000000000000000000000000009A
:100B5B00000000000000000000000000000000008A
:100B6B00000000000000000000000000000000007A
:100B7B00000000000000000000000000000000006A
:100B8B00000000000000000000000000000000005A
:100B9B00000000000000000000000000000000004A
:100BAB00000000000000000000000000000000003A
:100BBB00000000000000000090011BEBF0A3EAF026
:100BCB00A3E9F090011BE0FBA3E0FAA3E0F9120309
:100BDB00ABFFE4FD120CEF90011BE0FBA3E0FAA3CB
:100BEB00E0F99000011203C4FFE4FD120CEF900139
:100BFB001BE0FBA3E0FAA3E0F99000021203C4FF91
:100C0B00E4FD120CEF90011BE0FBA3E0FAA3E0F96B
:100C1B009000031203C4FFE4FD120CEF90011BE0E4
:100C2B00FBA3E0FAA3E0F99000041203C4FFE4FD78
:100C3B00120CEF90011BE0FBA3E0FAA3E0F990008C
:100C4B00051203C4FFE4FD120CEF90011BE0FBA3A4
:100C5B00E0FAA3E0F99000067408120403C003C085
:100C6B0002C00190011BE0FBA3E0FAA3E0F99000A6
:100C7B00061203C44420FDE4900125F0D001D002FC
:100C8B00D00312095E90011BE0FBA3E0FAA3E0F98D
:100C9B00900007740412040312109190011BE0FBE7
:100CAB00A3E0FAA3E0F912115E90011BE0FBA3E0B5
:100CBB00FAA3E0F99000087402120403C003C00207
:100CCB00C00190011BE0FBA3E0FAA3E0F990000840
:100CDB001203C44404FDE4900125F0D001D002D0EE
:100CEB000302095EEF5407FEF87401088002C33358
:100CFB00D8FCFEEF131313541FFF702EED7007EE8D
:100D0B00F45294529322ED64017008EE4294EEF487
:100D1B00529322ED64027006EEF452948008ED6457
:100D2B00037074EE4294EE429322EF6401702EED49
:100D3B007007EEF45292529122ED64017008EE426C
:100D4B0092EEF4529122ED64027006EEF452928010
:100D5B0008ED64037041EE4292EE429122EF640281
:100D6B007035EDFB7A007007EEF45296529522EB3C
:100D7B0064014A7008EE4296EEF4529522EDFB7A2E
:100D8B000064027006EEF452968009EB64034A701D
:100D9B0006EE4296EE429522E490010EF0A3F07B14
:100DAB00017A01791090011F7416F0A314F0A314AB
:100DBB00F0A314F0A314F07D17120F877B017A01B7
:100DCB007910120BC37B017A017910E490011FF0AB
:100DDB00FD120EDE90011E74FFF0A37411F0A374CC
:100DEB0085F07B017A01791012000E7B017A017973
:100DFB001090011F7401F0E4FD120EDE90011E74C1
:100E0B00FFF0A37411F0A37493F090010EE475F04E
:100E1B0001120471AFF0900121F0A3EFF07B017A86
:100E2B000179431200AB90011E7401F0A37401F021
:100E3B00A37443F07B017A01791012000E7F887E38
:100E4B001312112F020DD0787FE4F6D8FD75812196
:100E5B00020E99020919E493A3F8E493A34003F655
:100E6B008001F208DFF48029E493A3F85407240CE3
:100E7B00C8C333C4540F4420C8834004F4568001C4
:100E8B0046F6DFE4800B0102040810204080900A34
:100E9B0095E47E019360BCA3FF543F30E509541FDA
:100EAB00FEE493A360010ECF54C025E060A840B8C8
:100EBB00E493A3FAE493A3F8E493A3C8C582C8CA46
:100ECB00C583CAF0A3C8C582C8CAC583CADFE9DE19
:100EDB00E780BE90011BEBF0A3EAF0A3E9F0A3EDD2
:100EEB00F0A3E090011B600EE0FBA3E0FAA3E0F996
:100EFB00A3E02440800AE0FBA3E0FAA3E0F9A3E01F
:100F0B004480FDE4900125F012095E90011FE0FF83
:100F1B0090011BE0FBA3E0FAA3E0F9900009EF12AC
:100F2B00040390011EE090000A020403900126EBDB
:100F3B00F0A3EAF0A3E9F0900126E0FBA3E0FAA30B
:100F4B00E0F99000011203C4FFE4FD12100F9001B1
:100F5B0026E0FBA3E0FAA3E0F99000011203C4FF23
:100F6B007D0112100F900126E0FBA3E0FAA3E0F93C
:100F7B009000011203C4FFE4FD02100FED1203F108
:100F8B0090011FE0900001120403900120E09000FB
:100F9B0002120403900121E090000312040390015C
:100FAB0022E0900004120403900123E0900005124C
:100FBB000403900009E412040390000AE402040302
:100FCB00C2D5E830E70FB2D5E4C39BFBE49AFAE451
:100FDB0099F9E498F8EC30E717B2D5121001120525
:100FEB00FAE4C39BFBE49AFAE499F9E498F88003DA
:100FFB001205FA30D50DE4C39FFFE49EFEE49DFD80
:10100B00E49CFC22EF5407FEF87401088002C33302
:10101B00D8FCFEEF131313541FFF700CED6004EE9E
:10102B00428022EEF4528022EF6401700CED6004DA
:10103B00EE429022EEF4529022ED6004EE42A0229A
:10104B00EEF452A022C0E0C0F0C083C082C0D075C5
:10105B00D000C000C004C005C006C007E59A30E050
:10106B0006539AFE12114AE59A30E105539AFDC2D6
:10107B0009D007D006D005D004D000D0D0D082D074
:10108B0083D0F0D0E03290011EEBF0A3EAF0A3E99D
:10109B00F090011EE0FBA3E0FAA3E02407F9E43A89
:1010AB00FA1203AB44041203F190011EE0FBA3E020
:1010BB00FAA3E0F99000071203C44408FDE4900181
:1010CB0025F002095E90010CE0FCA3E0240AF582F6
:1010DB0074003CF583EFF090010DE004F070069086
:1010EB00010CE004F090010CE0FEA3E0FF7C017D1D
:1010FB000012042590010CECF0A3EDF022EFB40AE2
:10110B0007740D121113740A309811A899B8130CA7
:10111B00C2983098FDA899C298B811F63099FDC2C3
:10112B0099F59922EF4E6016E4FDEDC3946E748031
:10113B00948050030D80F3EF1F70E91E80E622AF01
:10114B009B1210D0900001E004F07006900000E0BC
:10115B0004F022E4900125F07D0112095E7FD07E20
:10116B000702116FEF4E6007EF1F70F81E80F5221C
:10117B007F011206D2E4FF02075B48656C6C6F2C93
:0F118B0020576F726C6421002564202020200003
:00000001FF
