:0A000000020C4310060DD5020CCFD0
:10000B0002084EE0FBA3E0FAA3E0F9900003E475CD
:10001B00F0011204B790000312047FFFAEF0E4FC72
:10002B00FD7BFF7AFFF9F8C312053F7F0070027F5B
:02003B000122A0
:10004300020EB502038EE86480F8E933E8336011E9
:100053000460F0ED33EC337009E8FCE9FDEAFEEBF4
:10006300FF220460DED3EB9FEA9EE99DE8C2E78CA2
:10007300F0C2F795F0400CE8CCF8E9CDF9EACEFAF6
:10008300EBCFFB12035985D0F05804700320D5B38E
:10009300E80470075002B2D502039892D5EC0460CD
:1000A300F7E4CCC0E0C398F8603B94186008400DB7
:1000B300D0E0FB020370E4FBFAC9FC8028E830E4DB
:1000C30006E4C9FBE4CAFCE830E305E4C9CACBFC97
:1000D300E854076010F8C3E913F9EA13FAEB13FBCA
:1000E300EC13FCD8F130F52FC3E49CFCEF9BFFEE3F
:1000F3009AFEED99FDD0E0FBEF4E4D4C701222DBE2
:1001030003020395EC2CFCEF33FFEE33FEED33FDDE
:10011300ED30E7EB020370EF2BFFEE3AFEED39FD16
:10012300D0E0FB50130BBB0003020398ED13FDEE6D
:1001330013FEEF13FFEC13FC020370EC4D6011E8A8
:10014300497017ED33EC3304600DE4FCFFFEFD2230
:10015300E933E8330470F802038E1203595804603C
:1001630009E4CC248150062850090203982840034F
:10017300020395C0E0EB4A7044B98006D0E0FB026D
:100183000384EF4E701CBD8008EBFFEAFEE9FD809F
:10019300EBE98DF0A4FEE5F0020227E9CDF9EAFED2
:1001A300EBFFEF89F0A4FCE5F0CE89F0A42EFFE489
:1001B30035F0CD89F0A42DFEE435F08067EF4E7065
:1001C30005BD80D780C3EF8BF0A4ACF0EE8BF0A419
:1001D3002CFCE435F0F8EF8AF0A42CE5F038FCE4CD
:1001E30033CB8DF0A42CFCE5F03BF8EE8AF0A42C85
:1001F300FCE5F038F8E433CF89F0A42CFCE5F038C3
:10020300CF3400CE89F0A42FFFE5F03EFEE433C9DE
:100213008DF0A42EFEE5F039CD8AF0A42FFFE5F092
:100223003EFEE43DFD33D0E0FB50070BBB000F0265
:100233000398EC2CFCEF33FFEE33FEED33FD0203AA
:1002430070020398EC5D046005E85904700302032F
:100253008E120359580460F6EC4860F2EC7004FD0A
:10026300FEFF22C860DB2481C85009C39860025096
:10027300060203959850CAF582E9294B4A7005ABEB
:100283008202038475F0007C1A7880C3EF9BEE9A98
:10029300ED99400DC3EF9BFFEE9AFEED99FDE84209
:1002A300F0DC23ACF0D0E0FFD0E0FED0E0FDAB8289
:1002B30020E7101BEB60BAEC2CFCEF33FFEE33FEB0
:1002C300ED33FD020370E803F830E705C0F075F085
:1002D30000EF2FFFEE33FEED33FD40B830E7C28071
:1002E300AA75F020800E75F010800575F0087D006A
:1002F3007E007F003392D530D503120531EC3340B5
:1003030010EF33FFEE33FEED33FDEC33FCD5F0EDB0
:1003130022E5F0247EA2D513CC92E7CDCEFF22EDC9
:10032300D2E7CD33EC3392D524814006E4FFFEFDC2
:10033300FC22FCE4CFCECDCC24E0501174FF80ED41
:10034300C3CC13CCCD13CDCE13CECF13CF0470F0CB
:1003530030D5DE020531E9D2E7C933E833F892D567
:10036300EDD2E7CD33EC33FC5002B2D522EC30E7CB
:10037300100FBF000C0EBE00080DBD00040BEB6098
:1003830014A2D5EB13FCED92E7FD2274FFFCFDFEF6
:10039300FF22E480F8A2D574FF13FC7D80E480EF94
:1003A300BB010689828A83E0225002E722BBFE0258
:1003B300E32289828A83E49322BB010CE58229F537
:1003C30082E5833AF583E0225006E92582F8E622A6
:1003D300BBFE06E92582F8E222E58229F582E58360
:1003E3003AF583E49322BB010689828A83F0225083
:1003F30002F722BBFE01F322F8BB010DE58229F5CA
:1004030082E5833AF583E8F0225006E92582C8F6AF
:1004130022BBFE05E92582C8F222C2D5EC30E709EA
:10042300B2D5E4C39DFDE49CFCEE30E715B2D5E400
:10043300C39FFFE49EFE1205C8C3E49DFDE49CFC3C
:1004430080031205C830D507C3E49FFFE49EFE2254
:10045300C5F0F8A3E028F0C5F0F8E5821582700234
:100463001583E038F022A3F8E0C5F025F0F0E5822B
:10047300158270021583E0C838F0E822BB0110E54D
:100483008229F582E5833AF583E0F5F0A3E0225073
:1004930009E92582F886F008E622BBFE0AE92582EF
:1004A300F8E2F5F008E222E5832AF583E993F5F013
:1004B300A3E99322BB010DC58229C582C5833AC531
:1004C300830204535011C58229F808E5F026F61873
:1004D300F5F0E58236F622BBFE11C58229F808E263
:1004E30025F0F5F0F218E23582F222F8E58229F5DB
:1004F30082E5832AF58374019325F0F5F0E49338BC
:1005030022F8BB0111E58229F582E5833AF583E8F8
:10051300F0E5F0A3F0225009E92582C8F608A6F019
:1005230022BBFE09E92582C8F2E5F008F222C3E402
:100533009FFFE49EFEE49DFDE49CFC22EB9FF5F00F
:10054300EA9E42F0E99D42F0EC6480C864809845DD
:10055300F022E8600FECC313FCED13FDEE13FEEF86
:1005630013FFD8F122BB010DE58229F582E5833A19
:10057300F5830206F75007E92582F80206EBBBFE76
:1005830007E92582F8020703E58229F582E5833A24
:10059300F58302070FBB010DE58229F582E5833A56
:1005A300F5830205BC5007E92582F802071FBBFE4D
:1005B30007E92582F802072B22ECF0A3EDF0A3EE66
:1005C300F0A3EFF022BC000BBE0029EF8DF084FFF7
:1005D300ADF022E4CCF875F008EF2FFFEE33FEEC1C
:1005E30033FCEE9DEC984005FCEE9DFE0FD5F0E943
:1005F300E4CEFD22EDF8F5F0EE8420D21CFEADF042
:1006030075F008EF2FFFED33FD4007985006D5F046
:10061300F222C398FD0FD5F0EA2275F00875820027
:10062300EF2FFFEE33FECD33CDCC33CCC58233C5B4
:10063300829BED9AEC99E58298400CF582EE9BFE45
:10064300ED9AFDEC99FC0FD5F0D6E4CEFBE4CDFAA0
:10065300E4CCF9A88222B800C1B90059BA002DEC44
:100663008BF084CFCECDFCE5F0CBF97818EF2FFFDC
:10067300EE33FEED33FDEC33FCEB33FB10D7039984
:100683004004EB99FB0FD8E5E4F9FA227818EF2F31
:10069300FFEE33FEED33FDEC33FCC933C910D70550
:1006A3009BE99A4007EC9BFCE99AF90FD8E0E4C96F
:1006B300FAE4CCFB2275F010EF2FFFEE33FEED339F
:1006C300FDCC33CCC833C810D7079BEC9AE89940CC
:1006D3000AED9BFDEC9AFCE899F80FD5F0DAE4CD2E
:1006E300FBE4CCFAE4C8F922E6FC08E6FD08E6FEE2
:1006F30008E6FF22E0FCA3E0FDA3E0FEA3E0FF2267
:10070300E2FC08E2FD08E2FE08E2FF22E493FC7447
:100713000193FD740293FE740393FF22ECF608ED3C
:10072300F608EEF608EFF622ECF208EDF208EEF228
:1007330008EFF222EFD3940140037FFF22740F2FBF
:100743002FF8E620E5F4C2AFE64430F6D2AFAE0CA4
:10075300EEC39F50210E74122EF8E6F908E618BE78
:10076300010274FFFDED69600909E71919F7090929
:1007730080F3161680DAEED39F400405810581EEDF
:10078300D39F402274122EF808E6F9EEB50C02A9A5
:1007930081180606E6FDED6960091919E70909F7ED
:1007A3001980F31E80D9EF2412F8E604F8EF2F0422
:1007B30090000393F608EF2F93F67F0022EFD39474
:1007C3000140037FFF22EF23240FF8E630E5F4C254
:1007D300AFE6548CF6D2AFE50CB5070A74122FF8C6
:1007E300E6F5810208C4502E74132FF8E6BF010208
:1007F30074FFFD18E6F974122FF8FBE6FCE96C6050
:1008030008A805E7F61D1980F4A803A6051FE50C43
:10081300B507E37F002274132FF8E6FD1886010F56
:1008230074122FF8A601088604E50CB50702AC8103
:10083300ED6C60080D09A805E6F780F4E50CB50733
:10084300DE89817F0022C2AF80FE3212084D85D03F
:100853000B75D008AAE0C28CE58A24F7F58AE58CEB
:1008630034D8F58CD28CEC2413F8E6BC010274FF67
:10087300C39581B4140040CE7902780E16E6087051
:100883000BC2AFE630E1034418F6D2AF08D9EDEA64
:100893008BD030010122D50DFCC0E0C0D0C0F0C028
:1008A30083C082C000C001C002C003C004C005C031
:1008B30006C007E50C23240FF87440C2AF46F6D2F6
:1008C300AFD201E50CFF23240FF80F0808BF020481
:1008D3007F00780FE630E4F200E50CC39F5020055B
:1008E3000C7412250CF8E6FDA68108E6AE0CBE01D9
:1008F3000274FFCDF8E86D60E008E6C0E080F6E53D
:100903000CD39F4027E50C2413F8E6AE0CBE01027E
:1009130074FFFD18E6CDF8E5816D6006D0E0F618AA
:1009230080F5E50C2412C8F6150C80D3750D05E58A
:100933000C23240FF87F04C2AFE610E61E30E00359
:1009430010E20C7F0030E10730E3047F0854F454D5
:100953007CC6D2AF54804207C20122F6D2AFD00781
:10096300D006D005D004D003D002D001D000D0826D
:10097300D083D0F0D0D0D0E0C201227812A6817407
:10098300016006FF0876FFDFFB7F02E4780EF608BE
:10099300F608DFFA780F7630900003740193C0E015
:1009A300E493C0E0750D05438901758AF0758CD811
:1009B300D28CD2AFD2A922016020010E0000000028
:1009C3000000000000000000000000000000000024
:1009D30000000000000000000000000042000000D2
:1009E300006100000A000000000000000000000099
:1009F30000000000000000000000000000000000F4
:100A030000000000000000000000000000000000E3
:100A130000000000000000000000000000000000D3
:100A230000000000000000000000000000000000C3
:100A330000000000000000000000000000000000B3
:100A430000000000000000000000000000000000A3
:100A53000000000000000000000000000000000093
:100A63000000000000000000000000000000000083
:100A73000000000000000000000000000000000073
:100A83000000000000000000000000000000000063
:100A93000000000000000000000000000000000053
:100AA3000000000000000000000000000000000043
:100AB3000000000000000000000000000000000033
:100AC3000000000000000000000000000000000023
:100AD3000000000000000000000000000000000013
:100AE300000000000000900133EBF0A3EAF0A3E95B
:100AF300F0900133E0FBA3E0FAA3E0F990000212C7
:100B030003BC605E1203A3FF7D01120E74900133D8
:100B1300E0FBA3E0FAA3E0F99000011203BCFF7D20
:100B230001120E74900133120FE6900133E0FBA320
:100B3300E0FAA3E0F99000011203BCFF120EF6EFF6
:100B4300700990013312000EEF60DF900133E0FB78
:100B5300A3E0FAA3E0F91203A3FF120EF6EF70026B
:100B6300FF22900133E0FBA3E0FAA3E0F91203A311
:100B7300FFE4FD120E74900133E0FBA3E0FAA3E05F
:100B8300F99000011203BCFFE4FD120E74900133CF
:100B9300E0FBA3E0FAA3E0F990000274011203FB67
:100BA3007F0122900133EBF0A3EAF0A3E9F0900177
:100BB30033E0FBA3E0FAA3E0F91203A3FFE4FD1281
:100BC3000E74900133E0FBA3E0FAA3E0F990000177
:100BD3001203BCFF7D01120E74900133120FE690D5
:100BE3000133E0FBA3E0FAA3E0F99000011203BC98
:100BF300FF120EF6EF700990013312000EEF60DF63
:100C0300900133E0FBA3E0FAA3E0F91203A3FF7D15
:100C130001120E74900133E0FBA3E0FAA3E0F91292
:100C230003A3FF120EF6EF7002FF22900133E0FBE5
:100C3300A3E0FAA3E0F9900002E41203FB7F012290
:100C4300787FE4F6D8FD758120020C8A02097EE4E0
:100C530093A3F8E493A34003F68001F208DFF48042
:100C630029E493A3F85407240CC8C333C4540F4492
:100C730020C8834004F456800146F6DFE4800B016C
:100C8300020408102040809009BBE47E019360BCFD
:100C9300A3FF543F30E509541FFEE493A360010E04
:100CA300CF54C025E060A840B8E493A3FAE493A32B
:100CB300F8E493A3C8C582C8CAC583CAF0A3C8C54C
:100CC30082C8CAC583CADFE9DEE780BEAE059001EC
:100CD30038EBF0A3EAF0A3E9F01203A3FF900001BD
:100CE3001203BCFD90013FEEF0E4FB120D559001A1
:100CF30038E0FBA3E0FAA3E0F91203A3FF7D01129E
:100D03000E74900138E0FBA3E0FAA3E0F990000130
:100D13001203BCFF7D01120E74900138E0FBA3E0C7
:100D2300FAA3E0F91203A3FF120EF690013BEFF0D2
:100D3300900138E0FBA3E0FAA3E0F990000112036D
:100D4300BCFFE4FD120E7490013BE07F0070027F54
:100D5300012290013EEBF0AC05A907E4FBEBC39441
:100D63000874809480506A90013EE064017024AF5F
:100D730001C007FE04A803088005C333CE33CED8D1
:100D8300F9FF90013FE0F582EF55827D0060027D1F
:100D9300018029AF01C007C374079BFF7E00740164
:100DA300A807088005C333CE33CED8F9FF90013F9F
:100DB300E0F582EF55827D0060027D01D007120EBF
:100DC30074AF047D01120E74AF041D120E740B80F8
:100DD3008C227B017A01792E9001377409F07D080A
:100DE300120FBD7B017A01792E120F6C7B017A0100
:100DF300792E120AE97B017A01792EE4900137F00A
:100E03007D52120FF77B017A01792E7D12120007B2
:100E13007B017A01792E7D321200077B017A0179F9
:100E23002E120BA67FD07E07120FA280BFC2D5E879
:100E330030E70FB2D5E4C39BFBE49AFAE499F9E4F3
:100E430098F8EC30E717B2D5120E66120659E4C3D0
:100E53009BFBE49AFAE499F9E498F88003120659A3
:100E630030D50DE4C39FFFE49EFEE49DFDE49CFCAE
:100E730022EF5407FEF87401088002C333D8FCFE46
:100E8300EF131313541FFF700CED6004EE42802226
:100E9300EEF4528022EF6401700CED6004EE429098
:100EA30022EEF4529022ED6004EE42A022EEF452C0
:100EB300A022C0E0C0F0C083C082C0D075D000C003
:100EC30000C004C005C006C007E59A30E006539A87
:100ED300FE120FD2E59A30E105539AFDC200D00706
:100EE300D006D005D004D000D0D0D082D083D0F0AB
:100EF300D0E032EF5407FEF87401088002C333D800
:100F0300FCFEEF131313541FFD7C00700AE5805E93
:100F13007F00601C7F0122ED64014C700AE5905E46
:100F23007F00600C7F0122E5A05E7F0060027F01ED
:100F33002290010CE0FCA3E0240AF58274003CF546
:100F430083EFF090010DE004F0700690010CE004D3
:100F5300F090010CE0FEA3E0FF7C017D0012041D74
:100F630090010CECF0A3EDF022900133EBF0A3EA37
:100F7300F0A3E9F0900133E0FBA3E0FAA3E0F91258
:100F830003A3FF7D01120E74900133E0FBA3E0FA8B
:100F9300A3E0F99000011203BCFF7D01020E74EF80
:100FA3004E6016E4FDEDC3946E7480948050030D7F
:100FB30080F3EF1F70E91E80E622ED1203E9900132
:100FC30037E09000011203FB900002E40203FBAF41
:100FD3009B120F34900001E004F07006900000E0D3
:100FE30004F022E0FBA3E0FAA3E0F9900003E4F5A8
:100FF300F0020504AF05EF25E0FF900137E04FFD58
:0D100300020CCF7F01120737E4FF0207C087
:00000001FF
